{
  "contractName": "Donation",
  "abi": [
    {
      "inputs": [],
      "payable": false,
      "stateMutability": "nonpayable",
      "type": "constructor"
    },
    {
      "constant": true,
      "inputs": [
        {
          "internalType": "address",
          "name": "",
          "type": "address"
        }
      ],
      "name": "contributors",
      "outputs": [
        {
          "internalType": "uint256",
          "name": "",
          "type": "uint256"
        }
      ],
      "payable": false,
      "stateMutability": "view",
      "type": "function"
    },
    {
      "constant": true,
      "inputs": [
        {
          "internalType": "address",
          "name": "",
          "type": "address"
        }
      ],
      "name": "nameTable",
      "outputs": [
        {
          "internalType": "bytes32",
          "name": "",
          "type": "bytes32"
        }
      ],
      "payable": false,
      "stateMutability": "view",
      "type": "function"
    },
    {
      "constant": true,
      "inputs": [],
      "name": "owner",
      "outputs": [
        {
          "internalType": "address payable",
          "name": "",
          "type": "address"
        }
      ],
      "payable": false,
      "stateMutability": "view",
      "type": "function"
    },
    {
      "constant": true,
      "inputs": [
        {
          "internalType": "uint256",
          "name": "",
          "type": "uint256"
        }
      ],
      "name": "proposals",
      "outputs": [
        {
          "internalType": "bytes32",
          "name": "description",
          "type": "bytes32"
        },
        {
          "internalType": "uint256",
          "name": "amount",
          "type": "uint256"
        },
        {
          "internalType": "bool",
          "name": "completed",
          "type": "bool"
        }
      ],
      "payable": false,
      "stateMutability": "view",
      "type": "function"
    },
    {
      "constant": false,
      "inputs": [
        {
          "internalType": "bytes32",
          "name": "name",
          "type": "bytes32"
        }
      ],
      "name": "contribute",
      "outputs": [],
      "payable": true,
      "stateMutability": "payable",
      "type": "function"
    },
    {
      "constant": true,
      "inputs": [],
      "name": "getCurrentDonation",
      "outputs": [
        {
          "internalType": "uint256",
          "name": "",
          "type": "uint256"
        }
      ],
      "payable": false,
      "stateMutability": "view",
      "type": "function"
    },
    {
      "constant": true,
      "inputs": [],
      "name": "getContributorNameAndAmount",
      "outputs": [
        {
          "internalType": "bytes32[]",
          "name": "",
          "type": "bytes32[]"
        },
        {
          "internalType": "uint256[]",
          "name": "",
          "type": "uint256[]"
        }
      ],
      "payable": false,
      "stateMutability": "view",
      "type": "function"
    },
    {
      "constant": false,
      "inputs": [
        {
          "internalType": "bytes32",
          "name": "_description",
          "type": "bytes32"
        },
        {
          "internalType": "uint256",
          "name": "_amount",
          "type": "uint256"
        }
      ],
      "name": "createProposal",
      "outputs": [],
      "payable": false,
      "stateMutability": "nonpayable",
      "type": "function"
    },
    {
      "constant": true,
      "inputs": [],
      "name": "getProposal",
      "outputs": [
        {
          "internalType": "bytes32[]",
          "name": "",
          "type": "bytes32[]"
        },
        {
          "internalType": "uint256[]",
          "name": "",
          "type": "uint256[]"
        },
        {
          "internalType": "bool[]",
          "name": "",
          "type": "bool[]"
        }
      ],
      "payable": false,
      "stateMutability": "view",
      "type": "function"
    }
  ],
  "bytecode": "0x608060405260636040519080825280602002602001820160405280156100345781602001602082028038833980820191505090505b506002908051906020019061004a9291906100a9565b50606460065534801561005c57600080fd5b50600033905080600760006101000a81548173ffffffffffffffffffffffffffffffffffffffff021916908373ffffffffffffffffffffffffffffffffffffffff16021790555050610176565b828054828255906000526020600020908101928215610122579160200282015b828111156101215782518260006101000a81548173ffffffffffffffffffffffffffffffffffffffff021916908373ffffffffffffffffffffffffffffffffffffffff160217905550916020019190600101906100c9565b5b50905061012f9190610133565b5090565b61017391905b8082111561016f57600081816101000a81549073ffffffffffffffffffffffffffffffffffffffff021916905550600101610139565b5090565b90565b610dfa806101856000396000f3fe6080604052600436106100865760003560e01c806389cc81c11161005957806389cc81c1146101705780638da5cb5b1461018c578063b9e2bea0146101b7578063c32946f1146101e4578063e4a6ad791461020d57610086565b8063013cf08b1461008b5780631f6d4942146100ca57806322698e531461010757806373f07a3814610133575b600080fd5b34801561009757600080fd5b506100b260048036036100ad9190810190610964565b610238565b6040516100c193929190610c11565b60405180910390f35b3480156100d657600080fd5b506100f160048036036100ec91908101906108d6565b61027c565b6040516100fe9190610c48565b60405180910390f35b34801561011357600080fd5b5061011c610294565b60405161012a929190610b73565b60405180910390f35b34801561013f57600080fd5b5061015a600480360361015591908101906108d6565b61044d565b6040516101679190610bf6565b60405180910390f35b61018a600480360361018591908101906108ff565b610465565b005b34801561019857600080fd5b506101a16105d5565b6040516101ae9190610b58565b60405180910390f35b3480156101c357600080fd5b506101cc6105fb565b6040516101db93929190610baa565b60405180910390f35b3480156101f057600080fd5b5061020b60048036036102069190810190610928565b61078a565b005b34801561021957600080fd5b50610222610867565b60405161022f9190610c48565b60405180910390f35b6003818154811061024557fe5b90600052602060002090600302016000915090508060000154908060010154908060020160009054906101000a900460ff16905083565b60006020528060005260406000206000915090505481565b606080600060028054905090506060816040519080825280602002602001820160405280156102d25781602001602082028038833980820191505090505b5090506060826040519080825280602002602001820160405280156103065781602001602082028038833980820191505090505b50905060008090505b8381101561043f57600160006002838154811061032857fe5b9060005260206000200160009054906101000a900473ffffffffffffffffffffffffffffffffffffffff1673ffffffffffffffffffffffffffffffffffffffff1673ffffffffffffffffffffffffffffffffffffffff1681526020019081526020016000205483828151811061039a57fe5b602002602001018181525050600080600283815481106103b657fe5b9060005260206000200160009054906101000a900473ffffffffffffffffffffffffffffffffffffffff1673ffffffffffffffffffffffffffffffffffffffff1673ffffffffffffffffffffffffffffffffffffffff1681526020019081526020016000205482828151811061042857fe5b60200260200101818152505080600101905061030f565b508181945094505050509091565b60016020528060005260406000206000915090505481565b6000341161047257600080fd5b60008060003373ffffffffffffffffffffffffffffffffffffffff1673ffffffffffffffffffffffffffffffffffffffff1681526020019081526020016000205414156105325760056000815480929190600101919050555060023390806001815401808255809150509060018203906000526020600020016000909192909190916101000a81548173ffffffffffffffffffffffffffffffffffffffff021916908373ffffffffffffffffffffffffffffffffffffffff160217905550505b80600160003373ffffffffffffffffffffffffffffffffffffffff1673ffffffffffffffffffffffffffffffffffffffff16815260200190815260200160002081905550346000803373ffffffffffffffffffffffffffffffffffffffff1673ffffffffffffffffffffffffffffffffffffffff168152602001908152602001600020600082825401925050819055503460046000828254019250508190555050565b600760009054906101000a900473ffffffffffffffffffffffffffffffffffffffff1681565b60608060606000600380549050905060608160405190808252806020026020018201604052801561063b5781602001602082028038833980820191505090505b50905060608260405190808252806020026020018201604052801561066f5781602001602082028038833980820191505090505b5090506060836040519080825280602002602001820160405280156106a35781602001602082028038833980820191505090505b50905060008090505b8481101561077757600381815481106106c157fe5b9060005260206000209060030201600001548482815181106106df57fe5b602002602001018181525050600381815481106106f857fe5b90600052602060002090600302016001015483828151811061071657fe5b6020026020010181815250506003818154811061072f57fe5b906000526020600020906003020160020160009054906101000a900460ff1682828151811061075a57fe5b6020026020010190151590811515815250508060010190506106ac565b5082828296509650965050505050909192565b60008060003373ffffffffffffffffffffffffffffffffffffffff1673ffffffffffffffffffffffffffffffffffffffff16815260200190815260200160002054116107d557600080fd5b6107dd610871565b604051806060016040528084815260200183815260200160001515815250905060038190806001815401808255809150509060018203906000526020600020906003020160009091929091909150600082015181600001556020820151816001015560408201518160020160006101000a81548160ff021916908315150217905550505050505050565b6000600454905090565b604051806060016040528060008019168152602001600081526020016000151581525090565b6000813590506108a681610d72565b92915050565b6000813590506108bb81610d89565b92915050565b6000813590506108d081610da0565b92915050565b6000602082840312156108e857600080fd5b60006108f684828501610897565b91505092915050565b60006020828403121561091157600080fd5b600061091f848285016108ac565b91505092915050565b6000806040838503121561093b57600080fd5b6000610949858286016108ac565b925050602061095a858286016108c1565b9150509250929050565b60006020828403121561097657600080fd5b6000610984848285016108c1565b91505092915050565b60006109998383610afe565b60208301905092915050565b60006109b18383610b1c565b60208301905092915050565b60006109c98383610b3a565b60208301905092915050565b6109de81610d20565b82525050565b60006109ef82610c93565b6109f98185610cdb565b9350610a0483610c63565b8060005b83811015610a35578151610a1c888261098d565b9750610a2783610cb4565b925050600181019050610a08565b5085935050505092915050565b6000610a4d82610c9e565b610a578185610cec565b9350610a6283610c73565b8060005b83811015610a93578151610a7a88826109a5565b9750610a8583610cc1565b925050600181019050610a66565b5085935050505092915050565b6000610aab82610ca9565b610ab58185610cfd565b9350610ac083610c83565b8060005b83811015610af1578151610ad888826109bd565b9750610ae383610cce565b925050600181019050610ac4565b5085935050505092915050565b610b0781610d32565b82525050565b610b1681610d32565b82525050565b610b2581610d3e565b82525050565b610b3481610d3e565b82525050565b610b4381610d68565b82525050565b610b5281610d68565b82525050565b6000602082019050610b6d60008301846109d5565b92915050565b60006040820190508181036000830152610b8d8185610a42565b90508181036020830152610ba18184610aa0565b90509392505050565b60006060820190508181036000830152610bc48186610a42565b90508181036020830152610bd88185610aa0565b90508181036040830152610bec81846109e4565b9050949350505050565b6000602082019050610c0b6000830184610b2b565b92915050565b6000606082019050610c266000830186610b2b565b610c336020830185610b49565b610c406040830184610b0d565b949350505050565b6000602082019050610c5d6000830184610b49565b92915050565b6000819050602082019050919050565b6000819050602082019050919050565b6000819050602082019050919050565b600081519050919050565b600081519050919050565b600081519050919050565b6000602082019050919050565b6000602082019050919050565b6000602082019050919050565b600082825260208201905092915050565b600082825260208201905092915050565b600082825260208201905092915050565b6000610d1982610d48565b9050919050565b6000610d2b82610d48565b9050919050565b60008115159050919050565b6000819050919050565b600073ffffffffffffffffffffffffffffffffffffffff82169050919050565b6000819050919050565b610d7b81610d0e565b8114610d8657600080fd5b50565b610d9281610d3e565b8114610d9d57600080fd5b50565b610da981610d68565b8114610db457600080fd5b5056fea365627a7a7231582091d30896e897b9477fce0734798e2b8207671ddba89fd7b89f4d69c4f0f5e4af6c6578706572696d656e74616cf564736f6c63430005110040",
  "source": "pragma solidity ^0.5.0;\npragma experimental ABIEncoderV2;\n\ncontract Donation {\n\n    mapping(address=>uint) public contributors;\n    mapping(address=>bytes32) public nameTable;\n    address[] contributorList = new address[](99);\n\n    struct Proposal {\n        bytes32 description;\n        uint amount;\n        bool completed;\n    }\n\n    Proposal[] public proposals;\n\n    uint totalDonation;\n    uint totalContributors;\n    uint target = 100;\n    address payable public owner;\n    \n    constructor() public {\n        address addr = msg.sender;\n        owner = address(uint160(addr));\n    }\n    \n   function contribute(bytes32 name) public payable {        \n        require(msg.value > 0);\n                \n        if(contributors[msg.sender] == 0)\n        {        \n            totalContributors++;\n            contributorList.push(msg.sender);\n        }\n        nameTable[msg.sender] = name;\n        contributors[msg.sender] += msg.value;\n        totalDonation += msg.value;\n    }\n\n    function getCurrentDonation() public view returns (uint) {\n      return totalDonation;\n    }\n\n    function getContributorNameAndAmount() public view returns (bytes32[] memory, uint[] memory) {\n      uint size = contributorList.length;\n      bytes32[] memory name = new bytes32[](size);\n      uint[] memory amount = new uint[](size);\n\n      for (uint i = 0; i < size; ++i) {\n        name[i] = nameTable[contributorList[i]];\n        amount[i] = contributors[contributorList[i]];\n      }\n      return (name, amount);\n    }\n\n    modifier resitrctDonor {\n        require(contributors[msg.sender] > 0);\n        _;\n    }\n\n    function createProposal(bytes32 _description, uint _amount) public resitrctDonor{\n      Proposal memory newProposal = Proposal(\n          {\n              description: _description,\n              amount: _amount,\n              completed: false\n              }\n          );\n      proposals.push(newProposal);\n    }\n\n    function getProposal() public view returns (bytes32[] memory, uint[] memory, bool[] memory) {\n      uint size = proposals.length;\n      bytes32[] memory descriptionList = new bytes32[](size);\n      uint[] memory amountList = new uint[](size);\n      bool[] memory completeList = new bool[](size);\n\n      for (uint i = 0; i < size; ++i) {\n        descriptionList[i] = proposals[i].description;\n        amountList[i] = proposals[i].amount;\n        completeList[i] = proposals[i].completed;\n      }\n\n      return (descriptionList, amountList, completeList);\n    }\n\n}",
  "sourcePath": "/Users/ruohanchen/Desktop/aps1050/web3_pet_store/pet-shop-box-master/contracts/Donation.sol",
  "compiler": {
    "name": "solc",
    "version": "0.5.17+commit.d19bba13.Emscripten.clang"
  },
  "schemaVersion": "3.0.22",
  "updatedAt": "2022-12-21T07:26:10.551Z",
  "networkType": "ethereum",
  "devdoc": {
    "methods": {}
  },
  "userdoc": {
    "methods": {}
  }
}