{
  "contractName": "Donation",
  "abi": [
    {
      "inputs": [],
      "payable": false,
      "stateMutability": "nonpayable",
      "type": "constructor"
    },
    {
      "constant": true,
      "inputs": [
        {
          "internalType": "address",
          "name": "",
          "type": "address"
        }
      ],
      "name": "contributors",
      "outputs": [
        {
          "internalType": "uint256",
          "name": "",
          "type": "uint256"
        }
      ],
      "payable": false,
      "stateMutability": "view",
      "type": "function"
    },
    {
      "constant": true,
      "inputs": [
        {
          "internalType": "address",
          "name": "",
          "type": "address"
        }
      ],
      "name": "nameTable",
      "outputs": [
        {
          "internalType": "bytes32",
          "name": "",
          "type": "bytes32"
        }
      ],
      "payable": false,
      "stateMutability": "view",
      "type": "function"
    },
    {
      "constant": true,
      "inputs": [],
      "name": "owner",
      "outputs": [
        {
          "internalType": "address payable",
          "name": "",
          "type": "address"
        }
      ],
      "payable": false,
      "stateMutability": "view",
      "type": "function"
    },
    {
      "constant": true,
      "inputs": [
        {
          "internalType": "uint256",
          "name": "",
          "type": "uint256"
        }
      ],
      "name": "proposals",
      "outputs": [
        {
          "internalType": "string",
          "name": "description",
          "type": "string"
        },
        {
          "internalType": "uint256",
          "name": "amount",
          "type": "uint256"
        },
        {
          "internalType": "address",
          "name": "recipient",
          "type": "address"
        },
        {
          "internalType": "bool",
          "name": "completed",
          "type": "bool"
        },
        {
          "internalType": "uint256",
          "name": "numberOfVoters",
          "type": "uint256"
        }
      ],
      "payable": false,
      "stateMutability": "view",
      "type": "function"
    },
    {
      "constant": false,
      "inputs": [
        {
          "internalType": "bytes32",
          "name": "name",
          "type": "bytes32"
        }
      ],
      "name": "contribute",
      "outputs": [],
      "payable": true,
      "stateMutability": "payable",
      "type": "function"
    },
    {
      "constant": true,
      "inputs": [],
      "name": "getCurrentDonation",
      "outputs": [
        {
          "internalType": "uint256",
          "name": "",
          "type": "uint256"
        }
      ],
      "payable": false,
      "stateMutability": "view",
      "type": "function"
    },
    {
      "constant": true,
      "inputs": [],
      "name": "getContributorNameAndAmount",
      "outputs": [
        {
          "internalType": "bytes32[]",
          "name": "",
          "type": "bytes32[]"
        },
        {
          "internalType": "uint256[]",
          "name": "",
          "type": "uint256[]"
        }
      ],
      "payable": false,
      "stateMutability": "view",
      "type": "function"
    },
    {
      "constant": false,
      "inputs": [
        {
          "internalType": "string",
          "name": "_description",
          "type": "string"
        },
        {
          "internalType": "uint256",
          "name": "_amount",
          "type": "uint256"
        },
        {
          "internalType": "address",
          "name": "_to",
          "type": "address"
        }
      ],
      "name": "createProposal",
      "outputs": [],
      "payable": false,
      "stateMutability": "nonpayable",
      "type": "function"
    },
    {
      "constant": false,
      "inputs": [
        {
          "internalType": "uint256",
          "name": "index",
          "type": "uint256"
        }
      ],
      "name": "voteForRequest",
      "outputs": [],
      "payable": false,
      "stateMutability": "nonpayable",
      "type": "function"
    },
    {
      "constant": true,
      "inputs": [
        {
          "internalType": "uint256",
          "name": "index",
          "type": "uint256"
        }
      ],
      "name": "getVoter",
      "outputs": [
        {
          "internalType": "address[]",
          "name": "",
          "type": "address[]"
        }
      ],
      "payable": false,
      "stateMutability": "view",
      "type": "function"
    }
  ],
  "bytecode": "0x60806040526063604051908082528060200260200182016040528015620000355781602001602082028038833980820191505090505b50600290805190602001906200004d929190620000ae565b5060646006553480156200006057600080fd5b50600033905080600760006101000a81548173ffffffffffffffffffffffffffffffffffffffff021916908373ffffffffffffffffffffffffffffffffffffffff1602179055505062000183565b8280548282559060005260206000209081019282156200012a579160200282015b82811115620001295782518260006101000a81548173ffffffffffffffffffffffffffffffffffffffff021916908373ffffffffffffffffffffffffffffffffffffffff16021790555091602001919060010190620000cf565b5b5090506200013991906200013d565b5090565b6200018091905b808211156200017c57600081816101000a81549073ffffffffffffffffffffffffffffffffffffffff02191690555060010162000144565b5090565b90565b61146f80620001936000396000f3fe6080604052600436106100915760003560e01c806373f07a381161005957806373f07a381461019257806389cc81c1146101cf5780638da5cb5b146101eb578063d07bff0c14610216578063e4a6ad791461025357610091565b8063013cf08b146100965780631f6d4942146100d757806322698e53146101145780636ac1e01f14610140578063700127ef14610169575b600080fd5b3480156100a257600080fd5b506100bd60048036036100b89190810190610ed0565b61027e565b6040516100ce95949392919061119b565b60405180910390f35b3480156100e357600080fd5b506100fe60048036036100f99190810190610e17565b610386565b60405161010b91906111f5565b60405180910390f35b34801561012057600080fd5b5061012961039e565b604051610137929190611149565b60405180910390f35b34801561014c57600080fd5b5061016760048036036101629190810190610e69565b610557565b005b34801561017557600080fd5b50610190600480360361018b9190810190610ed0565b61072f565b005b34801561019e57600080fd5b506101b960048036036101b49190810190610e17565b61095a565b6040516101c69190611180565b60405180910390f35b6101e960048036036101e49190810190610e40565b610972565b005b3480156101f757600080fd5b50610200610ae2565b60405161020d919061110c565b60405180910390f35b34801561022257600080fd5b5061023d60048036036102389190810190610ed0565b610b08565b60405161024a9190611127565b60405180910390f35b34801561025f57600080fd5b50610268610bba565b60405161027591906111f5565b60405180910390f35b6003818154811061028b57fe5b9060005260206000209060060201600091509050806000018054600181600116156101000203166002900480601f0160208091040260200160405190810160405280929190818152602001828054600181600116156101000203166002900480156103375780601f1061030c57610100808354040283529160200191610337565b820191906000526020600020905b81548152906001019060200180831161031a57829003601f168201915b5050505050908060010154908060020160009054906101000a900473ffffffffffffffffffffffffffffffffffffffff16908060020160149054906101000a900460ff16908060030154905085565b60006020528060005260406000206000915090505481565b606080600060028054905090506060816040519080825280602002602001820160405280156103dc5781602001602082028038833980820191505090505b5090506060826040519080825280602002602001820160405280156104105781602001602082028038833980820191505090505b50905060008090505b8381101561054957600160006002838154811061043257fe5b9060005260206000200160009054906101000a900473ffffffffffffffffffffffffffffffffffffffff1673ffffffffffffffffffffffffffffffffffffffff1673ffffffffffffffffffffffffffffffffffffffff168152602001908152602001600020548382815181106104a457fe5b602002602001018181525050600080600283815481106104c057fe5b9060005260206000200160009054906101000a900473ffffffffffffffffffffffffffffffffffffffff1673ffffffffffffffffffffffffffffffffffffffff1673ffffffffffffffffffffffffffffffffffffffff1681526020019081526020016000205482828151811061053257fe5b602002602001018181525050806001019050610419565b508181945094505050509091565b600760009054906101000a900473ffffffffffffffffffffffffffffffffffffffff1673ffffffffffffffffffffffffffffffffffffffff163373ffffffffffffffffffffffffffffffffffffffff16146105b157600080fd5b60065460045410156105c257600080fd5b6105ca610bc4565b6040518060c001604052808581526020018481526020018373ffffffffffffffffffffffffffffffffffffffff16815260200160001515815260200160008152602001600760405190808252806020026020018201604052801561063d5781602001602082028038833980820191505090505b50815250905060038190806001815401808255809150509060018203906000526020600020906006020160009091929091909150600082015181600001908051906020019061068d929190610c12565b506020820151816001015560408201518160020160006101000a81548173ffffffffffffffffffffffffffffffffffffffff021916908373ffffffffffffffffffffffffffffffffffffffff16021790555060608201518160020160146101000a81548160ff0219169083151502179055506080820151816003015560a0820151816005019080519060200190610725929190610c92565b5050505050505050565b600760009054906101000a900473ffffffffffffffffffffffffffffffffffffffff1673ffffffffffffffffffffffffffffffffffffffff163373ffffffffffffffffffffffffffffffffffffffff16141561078a57600080fd5b600654600454101561079b57600080fd5b6000600382815481106107aa57fe5b9060005260206000209060060201905060008060003373ffffffffffffffffffffffffffffffffffffffff1673ffffffffffffffffffffffffffffffffffffffff168152602001908152602001600020541161080557600080fd5b600015158160040160003373ffffffffffffffffffffffffffffffffffffffff1673ffffffffffffffffffffffffffffffffffffffff16815260200190815260200160002060009054906101000a900460ff1615151461086457600080fd5b8060020160149054906101000a900460ff161561088057600080fd5b60018160040160003373ffffffffffffffffffffffffffffffffffffffff1673ffffffffffffffffffffffffffffffffffffffff16815260200190815260200160002060006101000a81548160ff021916908315150217905550806005013390806001815401808255809150509060018203906000526020600020016000909192909190916101000a81548173ffffffffffffffffffffffffffffffffffffffff021916908373ffffffffffffffffffffffffffffffffffffffff1602179055505080600301600081548092919060010191905055505050565b60016020528060005260406000206000915090505481565b6000341161097f57600080fd5b60008060003373ffffffffffffffffffffffffffffffffffffffff1673ffffffffffffffffffffffffffffffffffffffff168152602001908152602001600020541415610a3f5760056000815480929190600101919050555060023390806001815401808255809150509060018203906000526020600020016000909192909190916101000a81548173ffffffffffffffffffffffffffffffffffffffff021916908373ffffffffffffffffffffffffffffffffffffffff160217905550505b80600160003373ffffffffffffffffffffffffffffffffffffffff1673ffffffffffffffffffffffffffffffffffffffff16815260200190815260200160002081905550346000803373ffffffffffffffffffffffffffffffffffffffff1673ffffffffffffffffffffffffffffffffffffffff168152602001908152602001600020600082825401925050819055503460046000828254019250508190555050565b600760009054906101000a900473ffffffffffffffffffffffffffffffffffffffff1681565b6060600060038381548110610b1957fe5b9060005260206000209060060201905080600501805480602002602001604051908101604052809291908181526020018280548015610bad57602002820191906000526020600020905b8160009054906101000a900473ffffffffffffffffffffffffffffffffffffffff1673ffffffffffffffffffffffffffffffffffffffff1681526020019060010190808311610b63575b5050505050915050919050565b6000600454905090565b6040518060c001604052806060815260200160008152602001600073ffffffffffffffffffffffffffffffffffffffff16815260200160001515815260200160008152602001606081525090565b828054600181600116156101000203166002900490600052602060002090601f016020900481019282601f10610c5357805160ff1916838001178555610c81565b82800160010185558215610c81579182015b82811115610c80578251825591602001919060010190610c65565b5b509050610c8e9190610d1c565b5090565b828054828255906000526020600020908101928215610d0b579160200282015b82811115610d0a5782518260006101000a81548173ffffffffffffffffffffffffffffffffffffffff021916908373ffffffffffffffffffffffffffffffffffffffff16021790555091602001919060010190610cb2565b5b509050610d189190610d41565b5090565b610d3e91905b80821115610d3a576000816000905550600101610d22565b5090565b90565b610d8191905b80821115610d7d57600081816101000a81549073ffffffffffffffffffffffffffffffffffffffff021916905550600101610d47565b5090565b90565b600081359050610d93816113e7565b92915050565b600081359050610da8816113fe565b92915050565b600082601f830112610dbf57600080fd5b8135610dd2610dcd8261123d565b611210565b91508082526020830160208301858383011115610dee57600080fd5b610df9838284611394565b50505092915050565b600081359050610e1181611415565b92915050565b600060208284031215610e2957600080fd5b6000610e3784828501610d84565b91505092915050565b600060208284031215610e5257600080fd5b6000610e6084828501610d99565b91505092915050565b600080600060608486031215610e7e57600080fd5b600084013567ffffffffffffffff811115610e9857600080fd5b610ea486828701610dae565b9350506020610eb586828701610e02565b9250506040610ec686828701610d84565b9150509250925092565b600060208284031215610ee257600080fd5b6000610ef084828501610e02565b91505092915050565b6000610f058383610f50565b60208301905092915050565b6000610f1d8383611097565b60208301905092915050565b6000610f3583836110ee565b60208301905092915050565b610f4a81611342565b82525050565b610f5981611330565b82525050565b610f6881611330565b82525050565b6000610f7982611299565b610f8381856112ec565b9350610f8e83611269565b8060005b83811015610fbf578151610fa68882610ef9565b9750610fb1836112c5565b925050600181019050610f92565b5085935050505092915050565b6000610fd7826112a4565b610fe181856112fd565b9350610fec83611279565b8060005b8381101561101d5781516110048882610f11565b975061100f836112d2565b925050600181019050610ff0565b5085935050505092915050565b6000611035826112af565b61103f818561130e565b935061104a83611289565b8060005b8381101561107b5781516110628882610f29565b975061106d836112df565b92505060018101905061104e565b5085935050505092915050565b61109181611354565b82525050565b6110a081611360565b82525050565b6110af81611360565b82525050565b60006110c0826112ba565b6110ca818561131f565b93506110da8185602086016113a3565b6110e3816113d6565b840191505092915050565b6110f78161138a565b82525050565b6111068161138a565b82525050565b60006020820190506111216000830184610f41565b92915050565b600060208201905081810360008301526111418184610f6e565b905092915050565b600060408201905081810360008301526111638185610fcc565b90508181036020830152611177818461102a565b90509392505050565b600060208201905061119560008301846110a6565b92915050565b600060a08201905081810360008301526111b581886110b5565b90506111c460208301876110fd565b6111d16040830186610f5f565b6111de6060830185611088565b6111eb60808301846110fd565b9695505050505050565b600060208201905061120a60008301846110fd565b92915050565b6000604051905081810181811067ffffffffffffffff8211171561123357600080fd5b8060405250919050565b600067ffffffffffffffff82111561125457600080fd5b601f19601f8301169050602081019050919050565b6000819050602082019050919050565b6000819050602082019050919050565b6000819050602082019050919050565b600081519050919050565b600081519050919050565b600081519050919050565b600081519050919050565b6000602082019050919050565b6000602082019050919050565b6000602082019050919050565b600082825260208201905092915050565b600082825260208201905092915050565b600082825260208201905092915050565b600082825260208201905092915050565b600061133b8261136a565b9050919050565b600061134d8261136a565b9050919050565b60008115159050919050565b6000819050919050565b600073ffffffffffffffffffffffffffffffffffffffff82169050919050565b6000819050919050565b82818337600083830152505050565b60005b838110156113c15780820151818401526020810190506113a6565b838111156113d0576000848401525b50505050565b6000601f19601f8301169050919050565b6113f081611330565b81146113fb57600080fd5b50565b61140781611360565b811461141257600080fd5b50565b61141e8161138a565b811461142957600080fd5b5056fea365627a7a723158203c1abb69d435054326bbaa372844bf90239337e3920b817b953f63ae03c464336c6578706572696d656e74616cf564736f6c63430005110040",
  "source": "pragma solidity ^0.5.0;\npragma experimental ABIEncoderV2;\n\ncontract Donation {\n\n    mapping(address=>uint) public contributors;\n    mapping(address=>bytes32) public nameTable;\n    address[] contributorList = new address[](99);\n\n    struct Proposal {\n        string description;\n        uint amount;\n        address recipient;\n        bool completed;\n        uint numberOfVoters;\n        // mapping(address=>bool) voters;\n        mapping(address=>bool) checkVoter;\n        address[] voters;\n    }\n\n    Proposal[] public proposals;\n\n    uint totalDonation;\n    uint totalContributors;\n    uint target = 100;\n    address payable public owner;\n    \n    constructor() public {\n        address addr = msg.sender;\n        owner = address(uint160(addr));\n    }\n    \n   function contribute(bytes32 name) public payable {        \n        require(msg.value > 0);\n                \n        if(contributors[msg.sender] == 0)\n        {        \n            totalContributors++;\n            contributorList.push(msg.sender);\n        }\n      \n        // bool sent = owner.send(msg.value);\n        // require(sent, \"Failed to send Ether\");\n\n        nameTable[msg.sender] = name;\n        contributors[msg.sender] += msg.value;\n        totalDonation += msg.value;\n    }\n\n    function getCurrentDonation() public view returns (uint) {\n      return totalDonation;\n    }\n\n    function getContributorNameAndAmount() public view returns (bytes32[] memory, uint[] memory) {\n      uint size = contributorList.length;\n      // string[99] memory name;\n      // uint[99] memory amount;\n      bytes32[] memory name = new bytes32[](size);\n      uint[] memory amount = new uint[](size);\n\n      for (uint i = 0; i < size; ++i) {\n        name[i] = nameTable[contributorList[i]];\n        amount[i] = contributors[contributorList[i]];\n      }\n      return (name, amount);\n    }\n\n    modifier resitrctOwner {\n        require(msg.sender == owner);\n        _;\n    }\n\n    modifier reachedTarget {\n        require(totalDonation >= target);\n        _;\n    }\n\n    modifier resitrctVoter {\n        require(msg.sender != owner);\n        _;\n    }\n\n    function createProposal(string memory _description, uint _amount, address _to) public resitrctOwner reachedTarget{\n      Proposal memory newProposal = Proposal(\n          {\n              description: _description,\n              amount: _amount,\n              recipient: _to,\n              numberOfVoters: 0,\n              completed: false,\n              voters: new address[](7)\n              }\n          );\n      proposals.push(newProposal);\n    }\n\n    function voteForRequest(uint index) public resitrctVoter reachedTarget{\n      Proposal storage p = proposals[index];\n      \n      require(contributors[msg.sender] > 0);\n      // require(p.voters[msg.sender] == false);\n      require(p.checkVoter[msg.sender] == false);\n      require(!p.completed);\n      \n      // p.voters[msg.sender] = true;\n      p.checkVoter[msg.sender] = true;\n      p.voters.push(msg.sender);\n      p.numberOfVoters++;\n    }\n\n    function getVoter(uint index) public view returns(address[] memory) {\n      Proposal storage p = proposals[index];\n      return p.voters;\n    }\n}",
  "sourcePath": "/Users/ruohanchen/Desktop/aps1050/web3_pet_store/pet-shop-box-master/contracts/Donation.sol",
  "compiler": {
    "name": "solc",
    "version": "0.5.17+commit.d19bba13.Emscripten.clang"
  },
  "schemaVersion": "3.0.22",
  "updatedAt": "2022-12-19T10:34:53.686Z",
  "networkType": "ethereum",
  "devdoc": {
    "methods": {}
  },
  "userdoc": {
    "methods": {}
  }
}