{
  "contractName": "Friends",
  "abi": [
    {
      "constant": true,
      "inputs": [],
      "name": "count",
      "outputs": [
        {
          "internalType": "uint256",
          "name": "",
          "type": "uint256"
        }
      ],
      "payable": false,
      "stateMutability": "view",
      "type": "function"
    },
    {
      "constant": true,
      "inputs": [
        {
          "internalType": "uint256",
          "name": "",
          "type": "uint256"
        }
      ],
      "name": "user_addresses",
      "outputs": [
        {
          "internalType": "address",
          "name": "",
          "type": "address"
        }
      ],
      "payable": false,
      "stateMutability": "view",
      "type": "function"
    },
    {
      "constant": true,
      "inputs": [
        {
          "internalType": "uint256",
          "name": "",
          "type": "uint256"
        }
      ],
      "name": "user_names",
      "outputs": [
        {
          "internalType": "bytes32",
          "name": "",
          "type": "bytes32"
        }
      ],
      "payable": false,
      "stateMutability": "view",
      "type": "function"
    },
    {
      "constant": false,
      "inputs": [
        {
          "internalType": "address",
          "name": "user_address",
          "type": "address"
        },
        {
          "internalType": "bytes32",
          "name": "name",
          "type": "bytes32"
        }
      ],
      "name": "add_friend",
      "outputs": [
        {
          "internalType": "uint256",
          "name": "",
          "type": "uint256"
        }
      ],
      "payable": false,
      "stateMutability": "nonpayable",
      "type": "function"
    },
    {
      "constant": true,
      "inputs": [],
      "name": "getFriends",
      "outputs": [
        {
          "internalType": "address[99]",
          "name": "",
          "type": "address[99]"
        },
        {
          "internalType": "bytes32[99]",
          "name": "",
          "type": "bytes32[99]"
        },
        {
          "internalType": "uint256",
          "name": "",
          "type": "uint256"
        }
      ],
      "payable": false,
      "stateMutability": "view",
      "type": "function"
    }
  ],
  "bytecode": "0x6080604052600060c65534801561001557600080fd5b506106ab806100256000396000f3fe608060405234801561001057600080fd5b50600436106100575760003560e01c806306661abd1461005c578063156a9f051461007a578063171b01ba146100aa5780631f8f7270146100da578063b211fb37146100fa575b600080fd5b61006461012a565b6040516100719190610568565b60405180910390f35b610094600480360361008f91908101906103a6565b610130565b6040516100a191906104f8565b60405180910390f35b6100c460048036036100bf919081019061036a565b610163565b6040516100d19190610568565b60405180910390f35b6100e26101f5565b6040516100f193929190610513565b60405180910390f35b610114600480360361010f91908101906103a6565b6102cd565b604051610121919061054d565b60405180910390f35b60c65481565b6063816063811061013d57fe5b016000915054906101000a900473ffffffffffffffffffffffffffffffffffffffff1681565b6000606360c654111561017557600080fd5b82606360c6546063811061018557fe5b0160006101000a81548173ffffffffffffffffffffffffffffffffffffffff021916908373ffffffffffffffffffffffffffffffffffffffff16021790555081600060c654606381106101d457fe5b0181905550600160c66000828254019250508190555060c654905092915050565b6101fd6102e5565b610205610308565b60006063600060c6548260638060200260405190810160405280929190826063801561027c576020028201915b8160009054906101000a900473ffffffffffffffffffffffffffffffffffffffff1673ffffffffffffffffffffffffffffffffffffffff1681526020019060010190808311610232575b50505050509250816063806020026040519081016040528092919082606380156102bb576020028201915b8154815260200190600101908083116102a7575b50505050509150925092509250909192565b600081606381106102da57fe5b016000915090505481565b60405180610c600160405280606390602082028038833980820191505090505090565b60405180610c600160405280606390602082028038833980820191505090505090565b60008135905061033a81610623565b92915050565b60008135905061034f8161063a565b92915050565b60008135905061036481610651565b92915050565b6000806040838503121561037d57600080fd5b600061038b8582860161032b565b925050602061039c85828601610340565b9150509250929050565b6000602082840312156103b857600080fd5b60006103c684828501610355565b91505092915050565b60006103db83836103ff565b60208301905092915050565b60006103f383836104cb565b60208301905092915050565b610408816105dd565b82525050565b610417816105dd565b82525050565b61042681610597565b61043081846105c7565b925061043b82610583565b8060005b8381101561046c57815161045387826103cf565b965061045e836105ad565b92505060018101905061043f565b505050505050565b61047d816105a2565b61048781846105d2565b92506104928261058d565b8060005b838110156104c35781516104aa87826103e7565b96506104b5836105ba565b925050600181019050610496565b505050505050565b6104d4816105ef565b82525050565b6104e3816105ef565b82525050565b6104f281610619565b82525050565b600060208201905061050d600083018461040e565b92915050565b60006118e082019050610529600083018661041d565b610537610c60830185610474565b6105456118c08301846104e9565b949350505050565b600060208201905061056260008301846104da565b92915050565b600060208201905061057d60008301846104e9565b92915050565b6000819050919050565b6000819050919050565b600060639050919050565b600060639050919050565b6000602082019050919050565b6000602082019050919050565b600081905092915050565b600081905092915050565b60006105e8826105f9565b9050919050565b6000819050919050565b600073ffffffffffffffffffffffffffffffffffffffff82169050919050565b6000819050919050565b61062c816105dd565b811461063757600080fd5b50565b610643816105ef565b811461064e57600080fd5b50565b61065a81610619565b811461066557600080fd5b5056fea365627a7a72315820ae88645ff364f7036e6a77f8886385596af3d5e9abf4dea2edbd54ee5d6628806c6578706572696d656e74616cf564736f6c63430005110040",
  "source": "pragma solidity ^0.5.0;\npragma experimental ABIEncoderV2;\n\ncontract Friends {\n    // struct Friend {\n    //     string name;\n    //     address user_address;\n    // }\n    // Friend[] public friends;\n    bytes32[99] public user_names;\n    address[99] public user_addresses;\n    uint public count = 0;\n    // add a friend\n    function add_friend(address user_address, bytes32 name) public returns (uint) {\n        require(count <= 99);\n        user_addresses[count] = user_address;\n        user_names[count] = name;\n        count += 1;\n        return count;\n    }\n\n    // Retrieving all friends\n    function getFriends() public view returns (address[99] memory, bytes32[99] memory, uint) {\n        // address[] memory user_addresses = new address[](count);\n        // string[] memory user_names = new string[](count);\n        // for (uint i = 0; i < count; i++){\n        //     user_addresses[i] = friends[i].user_address;\n        //     user_names[i] = friends[i].name;\n        // }\n        return (user_addresses, user_names, count);\n    }\n\n}",
  "sourcePath": "/Users/ruohanchen/Desktop/aps1050/web3_pet_store/pet-shop-box-master/contracts/Friends.sol",
  "compiler": {
    "name": "solc",
    "version": "0.5.17+commit.d19bba13.Emscripten.clang"
  },
  "schemaVersion": "3.0.22",
  "updatedAt": "2022-12-19T10:34:53.683Z",
  "networkType": "ethereum",
  "devdoc": {
    "methods": {}
  },
  "userdoc": {
    "methods": {}
  }
}