{
  "contractName": "Premium",
  "abi": [
    {
      "constant": true,
      "inputs": [],
      "name": "use_premium",
      "outputs": [
        {
          "internalType": "int256",
          "name": "",
          "type": "int256"
        }
      ],
      "payable": false,
      "stateMutability": "view",
      "type": "function"
    },
    {
      "constant": false,
      "inputs": [],
      "name": "buy_premium",
      "outputs": [
        {
          "internalType": "int256",
          "name": "",
          "type": "int256"
        }
      ],
      "payable": false,
      "stateMutability": "nonpayable",
      "type": "function"
    },
    {
      "constant": true,
      "inputs": [],
      "name": "getPremiumStatus",
      "outputs": [
        {
          "internalType": "int256",
          "name": "",
          "type": "int256"
        }
      ],
      "payable": false,
      "stateMutability": "view",
      "type": "function"
    }
  ],
  "bytecode": "0x60806040526000805534801561001457600080fd5b5060eb806100236000396000f3fe6080604052348015600f57600080fd5b5060043610603c5760003560e01c8063673a08101460415780639725be3014605d578063f16967fe146079575b600080fd5b60476095565b6040518082815260200191505060405180910390f35b6063609e565b6040518082815260200191505060405180910390f35b607f60b0565b6040518082815260200191505060405180910390f35b60008054905090565b60006001600081905550600054905090565b6000548156fea265627a7a723158209aa2a40199b4257314a5f7734e42535aeea26258ae1715fa69056dfe77f90b7464736f6c63430005110032",
  "source": "pragma solidity ^0.5.0;\n\ncontract Premium {\nint public use_premium = 0;\n// Adopting a pet\nfunction buy_premium() public returns (int) {\n  use_premium = 1;\n  return use_premium;\n}\n// Retrieving the adopters\nfunction getPremiumStatus() public view returns (int) {\n  return use_premium;\n}\n\n}",
  "sourcePath": "/Users/ruohanchen/Desktop/aps1050/web3_pet_store/pet-shop-box-master/contracts/Premium.sol",
  "compiler": {
    "name": "solc",
    "version": "0.5.17+commit.d19bba13.Emscripten.clang"
  },
  "schemaVersion": "3.0.22",
  "updatedAt": "2022-12-21T07:26:10.547Z",
  "networkType": "ethereum",
  "devdoc": {
    "methods": {}
  },
  "userdoc": {
    "methods": {}
  }
}