{
  "contractName": "Sell",
  "abi": [
    {
      "constant": false,
      "inputs": [
        {
          "internalType": "uint256",
          "name": "sell_price",
          "type": "uint256"
        }
      ],
      "name": "sell",
      "outputs": [],
      "payable": false,
      "stateMutability": "nonpayable",
      "type": "function"
    }
  ],
  "bytecode": "0x608060405234801561001057600080fd5b5060ea8061001f6000396000f3fe6080604052348015600f57600080fd5b506004361060285760003560e01c8063e4849b3214602d575b600080fd5b605660048036036020811015604157600080fd5b81019080803590602001909291905050506058565b005b67016345785d8a0000811115606c57600080fd5b3373ffffffffffffffffffffffffffffffffffffffff166108fc829081150290604051600060405180830381858888f1935050505015801560b1573d6000803e3d6000fd5b505056fea265627a7a72315820d24b449b08588db48839ef4b619e6d670e64530fd1ae5d0a97350b64aa885fa564736f6c63430005110032",
  "source": "pragma solidity ^0.5.0;\n\ncontract Sell{\n    function sell(uint sell_price) public {\n        // Limit sell price\n        require(sell_price <= 100000000000000000);\n\n        // Send the amount to the address that requested it\n        msg.sender.transfer(sell_price);\n    }\n}",
  "sourcePath": "/Users/jclkh/Desktop/aps1050/hw7/Homeworkpet-shop-tutorial_WEB3UPDATED_/Homeworkpet-shop-tutorial_WEB3UPDATED/pet-shop-box-master-completed/pet-shop-box-master/contracts/Sell.sol",
  "compiler": {
    "name": "solc",
    "version": "0.5.17+commit.d19bba13.Emscripten.clang"
  },
  "schemaVersion": "3.0.22",
  "updatedAt": "2022-12-15T03:57:41.304Z",
  "devdoc": {
    "methods": {}
  },
  "userdoc": {
    "methods": {}
  }
}