{
  "contractName": "Selling",
  "abi": [
    {
      "constant": true,
      "inputs": [
        {
          "internalType": "uint256",
          "name": "",
          "type": "uint256"
        }
      ],
      "name": "selleds",
      "outputs": [
        {
          "internalType": "int256",
          "name": "",
          "type": "int256"
        }
      ],
      "payable": false,
      "stateMutability": "view",
      "type": "function"
    },
    {
      "constant": false,
      "inputs": [
        {
          "internalType": "uint256",
          "name": "sell_price",
          "type": "uint256"
        },
        {
          "internalType": "uint256",
          "name": "petId",
          "type": "uint256"
        }
      ],
      "name": "sell",
      "outputs": [],
      "payable": false,
      "stateMutability": "nonpayable",
      "type": "function"
    },
    {
      "constant": false,
      "inputs": [
        {
          "internalType": "uint256",
          "name": "petId",
          "type": "uint256"
        }
      ],
      "name": "set_sellable",
      "outputs": [
        {
          "internalType": "uint256",
          "name": "",
          "type": "uint256"
        }
      ],
      "payable": false,
      "stateMutability": "nonpayable",
      "type": "function"
    },
    {
      "constant": true,
      "inputs": [],
      "name": "getSellstatus",
      "outputs": [
        {
          "internalType": "int256[99]",
          "name": "",
          "type": "int256[99]"
        }
      ],
      "payable": false,
      "stateMutability": "view",
      "type": "function"
    }
  ],
  "bytecode": "0x608060405234801561001057600080fd5b506102d5806100206000396000f3fe608060405234801561001057600080fd5b506004361061004c5760003560e01c8063c2ac4ce914610051578063cab7fe7114610093578063d79875eb146100d9578063f923524614610111575b600080fd5b61007d6004803603602081101561006757600080fd5b8101908080359060200190929190505050610153565b6040518082815260200191505060405180910390f35b61009b61016b565b6040518082606360200280838360005b838110156100c65780820151818401526020810190506100ab565b5050505090500191505060405180910390f35b61010f600480360360408110156100ef57600080fd5b8101908080359060200190929190803590602001909291905050506101b6565b005b61013d6004803603602081101561012757600080fd5b8101908080359060200190929190505050610245565b6040518082815260200191505060405180910390f35b6000816063811061016057fe5b016000915090505481565b61017361027d565b60006063806020026040519081016040528092919082606380156101ac576020028201915b815481526020019060010190808311610198575b5050505050905090565b67016345785d8a00008211156101cb57600080fd5b600081101580156101dd575060638111155b6101e657600080fd5b3373ffffffffffffffffffffffffffffffffffffffff166108fc839081150290604051600060405180830381858888f1935050505015801561022c573d6000803e3d6000fd5b5060026000826063811061023c57fe5b01819055505050565b6000808210158015610258575060638211155b61026157600080fd5b60016000836063811061027057fe5b0181905550819050919050565b60405180610c60016040528060639060208202803883398082019150509050509056fea265627a7a72315820d22938bebb0aee07d200550b9ec1097ab6867b4d68a6f47e19218bc87b1c35cf64736f6c63430005110032",
  "source": "pragma solidity ^0.5.0;\n\ncontract Selling{\n    int[99] public selleds;\n    // constructor() public {\n    //     for (uint i = 0; i < 99;i++){\n    //         selleds[i] = -1;\n    //     }\n    // }\n\n    function sell(uint sell_price, uint petId) public {\n        // Limit sell price\n        require(sell_price <= 100000000000000000);\n        require(petId >= 0 && petId <= 99);\n        // Send the amount to the address that requested it\n        msg.sender.transfer(sell_price);\n        selleds[petId] = 2;\n    }\n\n    function set_sellable(uint petId) public returns (uint) {\n        require(petId >= 0 && petId <= 99);\n        selleds[petId] = 1;\n        return petId;\n    }\n\n    // if status is 0, not allowed to sell\n    // if status is 1, allowed to sell\n    // if status is 2, already selled\n    function getSellstatus() public view returns (int[99] memory) {\n        return selleds;\n    }\n\n}",
  "sourcePath": "/Users/jclkh/Desktop/aps1050/hw7/Homeworkpet-shop-tutorial_WEB3UPDATED_/Homeworkpet-shop-tutorial_WEB3UPDATED/pet-shop-box-master-completed/pet-shop-box-master/contracts/Sell.sol",
  "compiler": {
    "name": "solc",
    "version": "0.5.17+commit.d19bba13.Emscripten.clang"
  },
  "schemaVersion": "3.0.22",
  "updatedAt": "2022-12-17T05:32:30.564Z",
  "networkType": "ethereum",
  "devdoc": {
    "methods": {}
  },
  "userdoc": {
    "methods": {}
  }
}